{
  "transactions": [
    {
      "hash": "0x8289be99f8eabf0962e5de7f10a24a8e9d290317617f40288ff38a1f68506ce2",
      "transactionType": "CALL",
      "contractName": null,
      "contractAddress": "0xeae766e002ccd273dc03e711e0868373ca52565d",
      "function": "setPriceFeed(address,address)",
      "arguments": [
        "0x7b79995e5f793A07Bc00c21412e50Ecae098E7f9",
        "0x694AA1769357215DE4FAC081bf1f309aDC325306"
      ],
      "transaction": {
        "from": "0xfb7c3bc613c1c50e6d6fedb917b8741d97e5f1cb",
        "to": "0xeae766e002ccd273dc03e711e0868373ca52565d",
        "gas": "0x1ff78",
        "value": "0x0",
        "input": "0x76e112860000000000000000000000007b79995e5f793a07bc00c21412e50ecae098e7f9000000000000000000000000694aa1769357215de4fac081bf1f309adc325306",
        "nonce": "0x1d",
        "chainId": "0xaa36a7"
      },
      "additionalContracts": [],
      "isFixedGasLimit": false
    }
  ],
  "receipts": [
    {
      "status": "0x1",
      "cumulativeGasUsed": "0x607978",
      "logs": [
        {
          "address": "0xeae766e002ccd273dc03e711e0868373ca52565d",
          "topics": [
            "0xa8abe0398416476db5b05737cd4da3b3cbde5012d978a6a6c3fd49d321753536",
            "0x0000000000000000000000007b79995e5f793a07bc00c21412e50ecae098e7f9",
            "0x000000000000000000000000694aa1769357215de4fac081bf1f309adc325306"
          ],
          "data": "0x",
          "blockHash": "0xd044522c2d04ab62de7701897c766e6a3dc875630931150a93348964c4eb7e5f",
          "blockNumber": "0x6da4a2",
          "transactionHash": "0x8289be99f8eabf0962e5de7f10a24a8e9d290317617f40288ff38a1f68506ce2",
          "transactionIndex": "0x4b",
          "logIndex": "0x61",
          "removed": false
        }
      ],
      "logsBloom": "0x00000000000000000000000000000000000000000000000000000000000000000000000000000002000000000000000000000000000000000000000000000000000000000080000000000040000000000000004000008000000000000000000000000000000000000000000000000000000000000000000000000400000000000000000000000000000000000000000010000000000000000000000000000000000000000000100000000000000000000000000000000000000000000001000000000000000000000080000000000000000000000000000000000000000000400000000000000000000000000000000000000000000000000000000002000000",
      "type": "0x2",
      "transactionHash": "0x8289be99f8eabf0962e5de7f10a24a8e9d290317617f40288ff38a1f68506ce2",
      "transactionIndex": "0x4b",
      "blockHash": "0xd044522c2d04ab62de7701897c766e6a3dc875630931150a93348964c4eb7e5f",
      "blockNumber": "0x6da4a2",
      "gasUsed": "0x15db9",
      "effectiveGasPrice": "0x7085e09d",
      "from": "0xfb7c3bc613c1c50e6d6fedb917b8741d97e5f1cb",
      "to": "0xeae766e002ccd273dc03e711e0868373ca52565d",
      "contractAddress": null
    }
  ],
  "libraries": [],
  "pending": [],
  "returns": {},
  "timestamp": 1733000808,
  "chain": 11155111,
  "commit": "699f35a"
}