{
  "transactions": [
    {
      "hash": "0x5962db0cd8558ba1e0bb87b2f60dff2bae98daa95e631e8162b011a1140e74d6",
      "transactionType": "CALL",
      "contractName": null,
      "contractAddress": "0xeae766e002ccd273dc03e711e0868373ca52565d",
      "function": "setPriceFeed(address,address)",
      "arguments": [
        "0x7b79995e5f793A07Bc00c21412e50Ecae098E7f9",
        "0x694AA1769357215DE4FAC081bf1f309aDC325306"
      ],
      "transaction": {
        "from": "0xfb7c3bc613c1c50e6d6fedb917b8741d97e5f1cb",
        "to": "0xeae766e002ccd273dc03e711e0868373ca52565d",
        "gas": "0x11c18",
        "value": "0x0",
        "input": "0x76e112860000000000000000000000007b79995e5f793a07bc00c21412e50ecae098e7f9000000000000000000000000694aa1769357215de4fac081bf1f309adc325306",
        "nonce": "0x1e",
        "chainId": "0xaa36a7"
      },
      "additionalContracts": [],
      "isFixedGasLimit": false
    },
    {
      "hash": "0xbec3e639e686added8cafe7b807a20735bd5539f283a1aa3fcc05eaebf174e0d",
      "transactionType": "CALL",
      "contractName": null,
      "contractAddress": "0xeae766e002ccd273dc03e711e0868373ca52565d",
      "function": "setPriceFeed(address,address)",
      "arguments": [
        "0x1c7D4B196Cb0C7B01d743Fbc6116a902379C7238",
        "0xA2F78ab2355fe2f984D808B5CeE7FD0A93D5270E"
      ],
      "transaction": {
        "from": "0xfb7c3bc613c1c50e6d6fedb917b8741d97e5f1cb",
        "to": "0xeae766e002ccd273dc03e711e0868373ca52565d",
        "gas": "0x19dd8",
        "value": "0x0",
        "input": "0x76e112860000000000000000000000001c7d4b196cb0c7b01d743fbc6116a902379c7238000000000000000000000000a2f78ab2355fe2f984d808b5cee7fd0a93d5270e",
        "nonce": "0x1f",
        "chainId": "0xaa36a7"
      },
      "additionalContracts": [],
      "isFixedGasLimit": false
    }
  ],
  "receipts": [
    {
      "status": "0x1",
      "cumulativeGasUsed": "0xec2293",
      "logs": [
        {
          "address": "0xeae766e002ccd273dc03e711e0868373ca52565d",
          "topics": [
            "0xa8abe0398416476db5b05737cd4da3b3cbde5012d978a6a6c3fd49d321753536",
            "0x0000000000000000000000007b79995e5f793a07bc00c21412e50ecae098e7f9",
            "0x000000000000000000000000694aa1769357215de4fac081bf1f309adc325306"
          ],
          "data": "0x",
          "blockHash": "0x58995732f85d0852744ebb95d59f41b400d3bbaa910a797a33db582ec757dbad",
          "blockNumber": "0x6da4b2",
          "transactionHash": "0x5962db0cd8558ba1e0bb87b2f60dff2bae98daa95e631e8162b011a1140e74d6",
          "transactionIndex": "0x12a",
          "logIndex": "0xa8",
          "removed": false
        }
      ],
      "logsBloom": "0x00000000000000000000000000000000000000000000000000000000000000000000000000000002000000000000000000000000000000000000000000000000000000000080000000000040000000000000004000008000000000000000000000000000000000000000000000000000000000000000000000000400000000000000000000000000000000000000000010000000000000000000000000000000000000000000100000000000000000000000000000000000000000000001000000000000000000000080000000000000000000000000000000000000000000400000000000000000000000000000000000000000000000000000000002000000",
      "type": "0x2",
      "transactionHash": "0x5962db0cd8558ba1e0bb87b2f60dff2bae98daa95e631e8162b011a1140e74d6",
      "transactionIndex": "0x12a",
      "blockHash": "0x58995732f85d0852744ebb95d59f41b400d3bbaa910a797a33db582ec757dbad",
      "blockNumber": "0x6da4b2",
      "gasUsed": "0xc241",
      "effectiveGasPrice": "0x69c832d9",
      "from": "0xfb7c3bc613c1c50e6d6fedb917b8741d97e5f1cb",
      "to": "0xeae766e002ccd273dc03e711e0868373ca52565d",
      "contractAddress": null
    },
    {
      "status": "0x1",
      "cumulativeGasUsed": "0xed9734",
      "logs": [
        {
          "address": "0xeae766e002ccd273dc03e711e0868373ca52565d",
          "topics": [
            "0xa8abe0398416476db5b05737cd4da3b3cbde5012d978a6a6c3fd49d321753536",
            "0x0000000000000000000000001c7d4b196cb0c7b01d743fbc6116a902379c7238",
            "0x000000000000000000000000a2f78ab2355fe2f984d808b5cee7fd0a93d5270e"
          ],
          "data": "0x",
          "blockHash": "0x58995732f85d0852744ebb95d59f41b400d3bbaa910a797a33db582ec757dbad",
          "blockNumber": "0x6da4b2",
          "transactionHash": "0xbec3e639e686added8cafe7b807a20735bd5539f283a1aa3fcc05eaebf174e0d",
          "transactionIndex": "0x12c",
          "logIndex": "0xa9",
          "removed": false
        }
      ],
      "logsBloom": "0x00000000000000000000000000000000000000000020000000000000000000000000000000000000000000000000000000000000000004000000000000000000100000000080000000000000000000000000000000000000000000000000000000000000000000000000000000000000000000000000000000000400000000000000000000000000000000000000000010000020000000000000000000000000000000000000100000000000000000000000008000000000000000000000000000000000000000000080000100000000000000000000000000000000000000400000000000000000000000000000000000000000000000000000000000000000",
      "type": "0x2",
      "transactionHash": "0xbec3e639e686added8cafe7b807a20735bd5539f283a1aa3fcc05eaebf174e0d",
      "transactionIndex": "0x12c",
      "blockHash": "0x58995732f85d0852744ebb95d59f41b400d3bbaa910a797a33db582ec757dbad",
      "blockNumber": "0x6da4b2",
      "gasUsed": "0x11af9",
      "effectiveGasPrice": "0x69c832d9",
      "from": "0xfb7c3bc613c1c50e6d6fedb917b8741d97e5f1cb",
      "to": "0xeae766e002ccd273dc03e711e0868373ca52565d",
      "contractAddress": null
    }
  ],
  "libraries": [],
  "pending": [],
  "returns": {},
  "timestamp": 1733001050,
  "chain": 11155111,
  "commit": "699f35a"
}